:100000000C94A9020C9485130C945E130C94D102E9
:100010000C94D1020C94D1020C9423150C94D102AF
:100020000C94D1020C94D1020C94D1020C94D10204
:100030000C94D1020C94D1020C94D1020C94D102F4
:100040000C9414130C94D1020C94D2130C94AC1392
:100050000C94D1020C94D1020C94D1020C94D102D4
:100060000C9404140C94D1022900280020002000D4
:100070002000005EBCE2613FDD83C29C7E20A3FDC8
:100080001F41009D23BE46DB65F88C11AF32CA5775
:10009000E974737461727475702E2E2E004F706542
:1000A0006E456E657267794D6F6E69746F722E6FF3
:1000B000726700656D6F6E50692056004F70656EF7
:1000C000456E657267794D6F6E00656D6F6E506934
:1000D000205600204E6574776F726B2000393135E1
:1000E0004D687A003836384D687A003433334D68BD
:1000F0007A00204672657120004E6F6465200052C0
:10010000464D3639435720496E69743A2000506C89
:1001100065617365207761697400426F6F74696E01
:10012000672E2E2E00445331384232302054656DF4
:10013000700044657465637465643A20003020443F
:1001400053313842323020646574656374656400ED
:10015000445331384232302054656D700044657428
:1001600065637465643A200020445331384232306C
:100170000044657465637420002043542773004E67
:100180006F2043542773006E6F20435420646574BE
:100190006563746564004465746563746564200018
:1001A0005600417373756D696E672056524D533A10
:1001B0002000555341206D6F6465004143204E4F30
:1001C00054206465746563746564202D20417070EB
:1001D0006172656E7420506F7765722063616C6325
:1001E00020656E61626C6564004143204E4F54206F
:1001F0004465746563746564005068617365205379
:10020000686966743A2000560056726D733A200091
:100210005663616C3A2000555341206D6F64652030
:100220003E20004143205761766520446574656334
:10023000746564202D205265616C20506F77657263
:100240002063616C6320656E61626C65640041438C
:100250002057617665204465746563746564005653
:100260000056524D53204143207E004354203220FB
:1002700043616C3A2000435420312043616C3A20A2
:10028000002000205553412000207100204D487A65
:10029000002040200020670020690020000A4176ED
:1002A00061696C61626C6520636F6D6D616E647312
:1002B0003A0A20203C6E6E3E206920202020202D0E
:1002C00020736574206E6F64652049447320287321
:1002D00074616E64617264206E6F6465206964731A
:1002E0002061726520312E2E3330290A20203C6E89
:1002F0003E20622020202020202D20736574204D78
:10030000487A2062616E64202834203D20343333E3
:100310002C2038203D203836382C2039203D2039FB
:100320003135290A20203C6E6E6E3E206720202049
:10033000202D20736574206E6574776F726B206753
:10034000726F7570202852464D3132206F6E6C7975
:1003500020616C6C6F7773203231322C2030203D5D
:1003600020616E79290A20203C6E3E2063202020E7
:100370002020202D2073657420636F6C6C6563747E
:10038000206D6F64652028616476616E6365642CFE
:10039000206E6F726D616C6C792030290A20202EDE
:1003A0002E2E2C3C6E6E3E2061202D2073656E64D7
:1003B0002064617461207061636B657420746F20C8
:1003C0006E6F6465203C6E6E3E2C207265717565A3
:1003D00073742061636B0A20202E2E2E2C3C6E6ECF
:1003E0003E2073202D2073656E642064617461204B
:1003F0007061636B657420746F206E6F6465203C60
:100400006E6E3E2C206E6F2061636B0A20202E2EB4
:100410002E2C3C6E3E207020202D205365742041F0
:10042000432041646170746572205663616C2031B1
:1004300070203D20554B2C203270203D20555341DB
:100440000A202076202020202020202020202D205F
:1004500053686F77206669726D7761726520766583
:100460007273696F6E0A20203C6E3E20712020203E
:100470002020202D20736574207175696574206DAE
:100480006F6465202831203D20646F6E27742072D0
:1004900065706F727420626164207061636B657453
:1004A00073290A005D00322E392E332E31005B6530
:1004B0006D6F6E50692E00203F004F4B0020620A86
:1004C00000202D3E200020282D30290020004F4BF9
:1004D000200000000000240027002A000000000087
:1004E000250028002B000000000800020100000386
:1004F00004070000000000000000010402000302E5
:10050000048A050506C30B2019421E2C25802E885F
:100510002F2D370038003C8F3D106F200000000069
:100520000023002600290004040404040404040237
:100530000202020202030303030303010204081080
:10054000204080010204081020010204081020004D
:10055000341511241FBECFEFD8E0DEBFCDBF11E0B0
:10056000A0E0B1E0E0EEF9E402C005900D92AC38F5
:10057000B107D9F725E0ACE8B1E001C01D92AF3773
:10058000B207E1F712E0C9EAD2E004C02197FE0108
:100590000E940D22C83AD107C9F70E94C2150C94D7
:1005A000EE240C9400000895833081F028F481300B
:1005B00099F08230A9F008958730A9F08830C9F009
:1005C0008430B1F4809180008F7D03C080918000E1
:1005D0008F7780938000089584B58F7784BD0895C8
:1005E00084B58F7DFBCF8091B0008F778093B00072
:1005F00008958091B0008F7DF9CF1F93CF93DF9343
:10060000282F30E0F901EA51FB4F8491F901E55CB4
:10061000FA4FD491F901E95DFA4FC491CC23A9F0C6
:10062000162F81110E94D402EC2FF0E0EE0FFF1F75
:10063000E452FB4FA591B4918FB7F894EC9111114E
:1006400008C0D095DE23DC938FBFDF91CF911F913F
:100650000895DE2BF8CFCF93DF9390E0FC01E55CAB
:10066000FA4F2491895D9A4FFC0184918823C9F047
:1006700090E0880F991FFC01EE52FB4FA591B491B9
:10068000FC01E452FB4FC591D49161110DC09FB79D
:10069000F8948C91209582238C9388812823288339
:1006A0009FBFDF91CF910895623051F49FB7F894C6
:1006B0003C91822F809583238C93E8812E2BEFCF62
:1006C0008FB7F894EC912E2B2C938FBFEACF8E30FE
:1006D00008F08E508770806480937C0080917A004F
:1006E000806480937A0080917A0086FDFCCF8091AF
:1006F00078009091790008953FB7F8948091FD03B8
:100700009091FE03A091FF03B091000426B5A89B31
:1007100005C02F3F19F00196A11DB11D3FBFBA2F93
:10072000A92F982F8827BC01CD01620F711D811D53
:10073000911D42E0660F771F881F991F4A95D1F7D8
:1007400008958F929F92AF92BF92CF92DF92EF92D5
:10075000FF926B017C010E947C034B015C01C11480
:10076000D104E104F104B9F00E947C03681979090D
:100770008A099B09683E73408105910580F321E059
:10078000C21AD108E108F10888EE880E83E0981EAD
:10079000A11CB11CE4CFFF90EF90DF90CF90BF90F1
:1007A000AF909F908F9008958EE480937C0062E0DC
:1007B00070E080E090E00E94A10380917A00806464
:1007C00080937A0080917A0086FDFCCF809178003A
:1007D0002091790030E0322F2227032E000C440BA9
:1007E000550B282B60E070E381E190E00E94EE2140
:1007F000CA01B90108952FB7F8946091F903709177
:10080000FA038091FB039091FC032FBF08950F938F
:100810001F930E94FB030091D8011091D9012091F0
:10082000DA013091DB01601B710B820B930B6D338E
:1008300071058105910528F0809103038F5F8093F6
:1008400003030E94FB036093D8017093D901809346
:10085000DA019093DB011F910F9108950895089597
:10086000EF92FF920F931F93CF93DF938C017B0145
:10087000D0E0C0E0F701EC0FFD1F6491662361F04A
:10088000D801ED91FC910190F081E02DC80109950E
:10089000892B11F02196EECFCE01DF91CF911F91E0
:1008A0000F91FF90EF900895AF92BF92CF92DF9299
:1008B000EF92FF920F931F93CF93DF936C017B0115
:1008C0008B01040F151FEB015E01AE18BF08C017A6
:1008D000D10759F06991D601ED91FC910190F08119
:1008E000E02DC6010995892B79F7C501DF91CF91DC
:1008F0001F910F91FF90EF90DF90CF90BF90AF903E
:100900000895FC01538D448D252F30E0842F90E015
:10091000821B930B541710F0CF96089501970895FA
:10092000FC01918D828D981761F0A28DAE0FBF2FC3
:10093000B11D5D968C91928D9F5F9F73928F90E019
:1009400008958FEF9FEF0895FC01918D828D981788
:1009500031F0828DE80FF11D858D90E008958FEFC5
:100960009FEF0895FC01918D228D892F90E0805C8E
:100970009F4F821B91098F739927089585EA94E010
:100980000E94B20421E0892B09F420E0822F08950F
:1009900080E090E0892B29F00E94BE0481110C9424
:1009A00000000895FC01A48DA80FB92FB11DA35A12
:1009B000BF4F2C91848D90E001968F739927848F7F
:1009C000A689B7892C93A089B1898C9183708064A2
:1009D0008C93938D848D981306C00288F389E02D43
:1009E00080818F7D80830895EF92FF920F931F93F4
:1009F000CF93DF93EC0181E0888F9B8D8C8D9813D2
:100A00001AC0E889F989808185FF15C09FB7F894DD
:100A1000EE89FF896083E889F98980818370806429
:100A200080839FBF81E090E0DF91CF911F910F9174
:100A3000FF90EF900895F62E0B8D10E00F5F1F4F83
:100A40000F731127E02E8C8D8E110CC00FB607FC92
:100A5000FACFE889F989808185FFF5CFCE010E9420
:100A6000D204F1CFEB8DEC0FFD2FF11DE35AFF4FB8
:100A7000F0829FB7F8940B8FEA89FB8980818062AE
:100A8000CFCF682F85EA94E00C94F404CF93DF93E2
:100A9000EC01888D8823B9F0AA89BB89E889F98996
:100AA0008C9185FD03C0808186FD0DC00FB607FCCB
:100AB000F7CF8C9185FFF2CF808185FFEDCFCE01FE
:100AC0000E94D204E9CFDF91CF910895E8982A9847
:100AD0008EBD0DB407FEFDCF8EB56EBD0DB407FE05
:100AE000FDCF8EB52A9AE89A089560E00C946605C9
:100AF000CF93C82F81E00E947505837E682F6C2BF1
:100B000081E8CF910C94660580919E04853059F45C
:100B100080910504811107C084E080939E040E94A7
:100B2000780581E0089580E0089588E20E947505C7
:100B3000807521F080E00E947505F7CF0895862723
:100B4000682F62956827062E669566956025062EA5
:100B5000669560256770082E892F669507946795BE
:100B6000902D862706946795902586270895809175
:100B70009E04843029F0853041F18FEF9FEF089576
:100B800010920804109205046091A4048FEF9FEF67
:100B90000E949F05909304048093030486E094E0F0
:100BA000909302048093010485E080939E040E9448
:100BB000950560E885EA0E94660580E10E94780557
:100BC00062E08EE90E946605D8CF809108042091EA
:100BD000050490E004962817190609F024F4809182
:100BE0000504883450F284E080939E040E947805C6
:100BF000809108042091030430910404232BB9F45C
:100C00008334A8F48091070486FF14C03091A304B4
:100C10003F3181F0209107042F7181E090E0231390
:100C200002C090E080E0919581959109089581E05E
:100C300090E0089590E080E00895CF93DF93809155
:100C40009E04853009F04DC060E485EA0E94660587
:100C500084E20E94750580934002789488E20E94A5
:100C600075058075D9F380910504C0910104D09178
:100C7000020481110CC0E091050481E08E0F809385
:100C80000504EC0FFD2FF11D8091A404808380E00A
:100C90000E947505E091050491E09E0F9093050474
:100CA000EC0FFD2FF11D8083682F8091030490913C
:100CB00004040E949F059093040480930304809190
:100CC00008042091050490E004962817190609F0FD
:100CD0002CF480910504883408F4C0CFDF91CF91C3
:100CE000089588E20E94750583FFF8CF84E0809321
:100CF0009E040E94780560E885EADF91CF910C940C
:100D00006605CF9340930804FB0130E020E050E0FB
:100D10002417350744F4D901A75FBB4F91919C93E9
:100D20002F5F3F4FF5CF86FD04C0807E9091A304D6
:100D3000890F809307046091A4048FEF9FEF0E94B6
:100D40009F059093040480930304909108048EEF10
:100D5000891B80939E040E9495058CE00E94780573
:100D600060E085EA0E94660580919E048330D4F598
:100D700088E20E94750587FDF7CF80919E0487FF6A
:100D800025C0E091080480919E04209101043091D7
:100D90000204E20FF32FF11DE80FF11D87FDFA9514
:100DA000C3816C2F80910304909104040E949F05DD
:100DB00090930404809303046C2F80E80E946605DE
:100DC00080919E048F5F80939E04CECF80919E047D
:100DD000C0910304882381F3C0910404813061F33E
:100DE000CAEAEACFCF910895089520911D02260FF7
:100DF0003327331F21323105ECF420917404FC01B8
:100E000090E080E0243069F082E00895A0911D0216
:100E10002191AC0143505E4FA40FB52FB11D2C930F
:100E20000196861798F380911D02680F60931D024A
:100E300080E0089581E008951092740481E0809329
:100E4000730410924E0461E082E10E94FD0261E0B1
:100E500083E10E94FD02E9EBF0E080818E7F8083D8
:100E600080818D7F808388E48093B80085E48093BF
:100E7000BC000895CF93DF9391E09093FC01882309
:100E8000B9F0C091B800D091BA008091BC008A7BC3
:100E90008093BC0060E082E10E94FD0260E083E19B
:100EA0000E94FD020E941C07D093BA00C093B800B4
:100EB000DF91CF910895CF92DF92EF92FF920F933F
:100EC0001F93CF93DF93D0919D0481E0D13208F03E
:100ED0009CC0C0919C040E947C036B017C018091AA
:100EE000740481116CC082E08093740481E080936B
:100EF00073048FEF8093720410927104D093700486
:100F0000ACE7B4E0E0E5F4E080E0D8138DC01092E7
:100F10004F0480914F04CC0FC82BC0934F04809195
:100F20004E04813009F084C010924E040E947C036C
:100F30006B017C0180914F048093BB00809176040B
:100F400090917704A0917804B0917904892B8A2B31
:100F50008B2BA1F00E947C03009176041091770402
:100F600020917804309179046C197D098E099F09CC
:100F7000061717072807390708F442C08091BC00FC
:100F800083FDD8CF85EC8093BC000E947C036B016D
:100F90007C0180917404823009F44CC08091720409
:100FA0008F3F09F469C080917204803209F466C0F1
:100FB00080917204803309F463C084E026C080917C
:100FC000760490917704A0917804B0917904892BEC
:100FD0008A2B8B2B09F483CF0E947C03009176042B
:100FE0001091770420917804309179046C197D096F
:100FF0008E099F09061717072807390708F06FCFD2
:10100000809175040E943A0785E010927B0410924B
:101010009D0410927A04DF91CF911F910F91FF9060
:10102000EF90DF90CF9008959D9191938F5F6DCF5A
:1010300085EEA9CF8091760490917704A0917804F1
:10104000B0917904892B8A2B8B2B09F4A2CF0E94B3
:101050007C030091760410917704209178043091FC
:1010600079046C197D098E099F090617170728074F
:10107000390708F08ECFC4CF80E0C7CF82E0C5CF5C
:1010800083E0C3CF0895E091460280914502E817BE
:1010900030F4F0E0E452FE4F808190E008958FEF4D
:1010A0009FEF089590914602809145022FEF3FEF08
:1010B000981748F4E92FF0E0E452FE4F208130E029
:1010C0009F5F90934602C9010895809145029091D7
:1010D0004602891B990B0895CF92DF92EF92FF92FF
:1010E0000F931F93CF93DF937C01CB018A01209153
:1010F0007A04222389F0EB016B01C40ED51ECC15B6
:10110000DD0569F06991D701ED91FC910190F081C5
:10111000E02DC7010995F3CF642F0E94F506C801A1
:10112000DF91CF911F910F91FF90EF90DF90CF90C3
:101130000895CF93DF931F92CDB7DEB769832091D7
:101140007A042223F9F020919D04203258F021E006
:1011500030E0FC013383228390E080E00F90DF9148
:10116000CF91089580917B04E82FF0E0E458FB4F85
:10117000998190838F5F80937B0480939D0481E0AD
:1011800090E0ECCF61E0CE0101960E94F506F7CF2A
:10119000FC01248131E030937A0420939C04109266
:1011A0007B0410929D048385682B82E495E00E9465
:1011B00099080C945B0790E080E00895DC0180E0E2
:1011C000615090F09D919827E92FEF70F0E0EE5874
:1011D000FF4F2491E92FE295EF70F0E0EE57FF4FBB
:1011E000E491822F8E27ECCF0895DC012C9111968B
:1011F000ED91FC91F8948181822B81839281322F31
:1012000030959323928387E090E00197F1F78181F5
:101210008323818383E290E00197F1F790817894B2
:10122000EFECF0E03197F1F7922381E009F480E0F0
:101230000895FC0190810180F281E02D292F2095F5
:1012400060FF14C0F8948281822382838181892B7C
:101250008183A3E2B0E01197F1F78281982B92830A
:10126000789487ED90E00197F1F70895F8948281E2
:10127000822382838181892B8183AFEFB0E0119734
:10128000F1F78281982B928378948FE090E0EBCFF6
:10129000DF92EF92FF920F931F93CF93DF93EC01B6
:1012A000D62EE42E08E010E0FF24F39461E08D2DAB
:1012B0008F2109F460E0CE010E941909FF0C015052
:1012C0001109A1F7E11010C0F894E981FA81918128
:1012D0008881809589238183E981FA81928188813F
:1012E0008095892382837894DF91CF911F910F910C
:1012F000FF90EF90DF900895EF92FF920F931F936E
:10130000CF93DF938C017B0140E065E50E944809A3
:10131000E70188E0E80EF11C699140E0C8010E94F5
:101320004809CE15DF05C1F7DF91CF911F910F91CD
:10133000FF90EF900895FC0190810180F281E02DF3
:10134000F8948181292F20958223818378943DE729
:1013500043E050E0315029F1DA011197F1F7808133
:101360008923C1F3F8948281822382838181892B2E
:1013700081837894ABE7B7E01197F1F7F894818116
:1013800082238183A3E1B1E01197F1F78081982353
:1013900081E009F080E07894E3E6F6E03197F1F738
:1013A000089580E008956F927F928F929F92AF92FE
:1013B000BF92CF92DF92EF92FF920F931F93CF9342
:1013C000DF938C01EB0180915705909158050E94A5
:1013D0009B09882309F43FC0B8018091570590917B
:1013E00058050E947C0940E06EEB80915705909172
:1013F00058050E9448097E016E0189E0C80ED11C83
:101400008E01A0905705B090580588E0882E912C49
:10141000712C66246394C5010E94F5088111762819
:10142000660CE1E08E1A9108B1F7F80171928F0114
:10143000CE16DF0631F780915705909158050E942E
:101440009B09813041F4F70181917F01811105C031
:10145000E017F107C1F790E008C068E0CE010E94F4
:10146000DE0891E028852813F6CF892FDF91CF91F0
:101470001F910F91FF90EF90DF90CF90BF90AF90B2
:101480009F908F907F906F900895CF93DF93CDB70B
:10149000DEB729970FB6F894DEBF0FBECDBFBE01F1
:1014A0006F5F7F4F0E94D309882331F08D818F3386
:1014B000A9F020F48F31A1F080E007C08F3521F032
:1014C0008F37D1F78CE001C08BE029960FB6F894E6
:1014D000DEBF0FBECDBFDF91CF9108958AE0F5CF7B
:1014E00089E0F3CF1F93CF93DF93EC01162F888110
:1014F00099810E949B096A817B81888199810E94E0
:101500007C091123B1F040E064E4888199810E9454
:1015100048096AE070E080E090E00E94A1038881C1
:1015200099810E949B096A817B81888199810E94AF
:101530007C0940E064EB888199810E94480968E059
:1015400070E080E090E00E94A10381E0DF91CF9104
:101550001F9108956F927F928F929F92AF92BF9248
:10156000CF92DF92EF92FF920F931F93CF93DF936F
:10157000EC018B01888199810E949B096A817B81A2
:10158000888199810E947C0940E068EB888199817B
:101590000E94480940E060E0888199810E944809E2
:1015A000888199810E949B096A817B8188819981C8
:1015B0000E947C0940E06EEB888199810E94480975
:1015C00040E060E0888199810E94480978016801C3
:1015D00089E0C80ED11CA880B98088E0882E912CA3
:1015E000712C66246394C5010E94F5088111762848
:1015F000660CE1E08E1A9108B1F7F70171927F0154
:10160000CE16DF0641F768E0C8010E94DE0891E0CF
:10161000F8012085281390E0892FDF91CF911F9149
:101620000F91FF90EF90DF90CF90BF90AF909F9081
:101630008F907F906F900895EF92FF920F931F937A
:10164000CF93DF93EC017B01888199810E949B09F4
:101650006A817B81888199810E947C0940E06EE4E7
:10166000888199810E94480940E060E088819981E1
:101670000E944809870188E0E80EF11CF801619199
:101680008F0140E0888199810E9448090E151F054D
:10169000A9F7888199810E949B096A817B81888151
:1016A00099810E947C0940E068E4888199810E94C8
:1016B000480940E060E088819981DF91CF911F91D6
:1016C0000F91FF90EF900C9448091F93CF93DF93F5
:1016D000EC01FE011491112351F01A3019F48DE040
:1016E0000E944105812F0E9441052196F2CFDF9192
:1016F000CF911F91089561E089E00E94FD0269E1A8
:1017000070E080E090E00E94A10360E089E00E9428
:10171000FD0261E089E00E94FD0269E170E080E085
:1017200090E00E94A10360E089E00C94FD02CF925A
:10173000DF92EF92FF920F931F93CF93DF93C82F07
:10174000D42FEFEFE60FE33008F07CC0F0E0E55E69
:10175000FE4FE081A62FB0E020E039E04DE350E0FD
:101760000E9431226B017C01AE2FB0E020E836E907
:1017700048E950E00E9431226C0D7D1D8E1D9F1D99
:1017800022E0660F771F881F991F2A95D1F729E05D
:101790003DE340E050E00E94CC2166E0220F331F81
:1017A000441F551F6A95D1F720939F043093A004DE
:1017B0004093A1045093A204D093A404DC2FDF71C2
:1017C000D093A30464E170E080E090E00E94A10364
:1017D000DD2309F439C08DE196E090930A018093EE
:1017E000090180916900836080936900E89A2A9AD0
:1017F000229A2A9A84B18C6284B980E58CBD8DB519
:1018000081608DBD6AEA8FEA0E9466058FE20E94C0
:1018100075058A3AB9F765E58FEA0E9466058FE299
:101820000E9475058535B9F70AEF14E0F801849137
:10183000882391F03196649180680E9466050E5F5E
:101840001F4FF4CFE0E086CFE89883ED92E09093CD
:101850000A0180930901CBCF6091A40480EB0E9420
:101860006605C0909F04D090A004E090A104F09081
:10187000A204B7018827992787E80E94660599275F
:101880008F2D7E2D6D2D88E80E9466056C2D89E8D0
:101890000E94660584E080939E048C2FDF91CF9197
:1018A0001F910F91FF90EF90DF90CF900895BF921E
:1018B000CF92DF92EF92FF920F931F93CF93DF931C
:1018C000EC01B62EC72E8D85811105C0CE010E9478
:1018D0009B0981110EC01B861D861C8680E0DF914E
:1018E000CF911F910F91FF90EF90DF90CF90BF901D
:1018F000089540E060EFCE010E94480901E0E12C2C
:10190000D12C11E0CE010E94F508F82ECE010E94E4
:10191000F50891E0F91218C0813099F51134D8F228
:10192000DB86D11002C081E08D878B81882399F2FC
:101930002396EB2DFC2DCF01089629912193E817D2
:10194000F907D9F781E0CBCFEE2DF0E0F8120FC008
:101950008B851817A0F4DE01AE0FBF1F13968C9174
:10196000802379F4F12C193008F41C87D12EEC0F68
:10197000FD1F8381902F9095892383830AC0811353
:10198000F1CFFE01EE0DF11D8381802B8383FF24B7
:10199000F3946F2DCE010E9419091F5F000F11F4FF
:1019A000E39401E087E08E1508F0ACCFB7CFFF924B
:1019B0000F931F93CF93DF938C01F62EE091570581
:1019C000F0915805138615861486128611861086A6
:1019D00017821682158214821382C0E0B8018091AA
:1019E0005705909158050E94570CD82F882329F04D
:1019F000FC1629F0CF5FFC1688F7D0E008C067E03E
:101A0000C8010E94DE08F80197818913F3CF8D2F5A
:101A1000DF91CF911F910F91FF9008950F931F9326
:101A2000CF938C01C62F0E94C8086C2F6460C80138
:101A30000E94C8086C2F6B7FC8010E94C80883EC05
:101A400090E00197F1F7CF911F910F9108950F93B7
:101A50001F93CF93DF938C01D62FC42F607F642B0D
:101A60000E940E0D80E1D89FB00111246C2BC8019B
:101A7000DF91CF911F910F910C940E0DCF93DF93B7
:101A8000CDB7DEB728970FB6F894DEBF0FBECDBF37
:101A900028E0EDE0F1E0DE01119601900D922A952B
:101AA000E1F7FC012085211118C02FEF30E0220F53
:101AB000331F41E050E04C0F5D1F240F351FF9012B
:101AC0006081606840E028960FB6F894DEBF0FBED4
:101AD000CDBFDF91CF910C94270D21E0E7CF40E0FF
:101AE00061E00E94270D8BE39FE10197F1F70895D4
:101AF00041E00E94270D81E090E008952F923F92EF
:101B00004F925F926F927F928F929F92AF92BF920D
:101B1000CF92DF92EF92FF920F931F93CF93DF93B9
:101B2000CDB7DEB7A4970FB6F894DEBF0FBECDBF1A
:101B30009CA38BA30E94D4036B8B7C8B8D8B9E8B81
:101B40000E94FB034B015C016BA07CA028E5620EA8
:101B5000711CABA1BCA154968C910E946703F30148
:101B600091838083BC01990F880B990B0E946C2391
:101B70006B017C012DEC3CEC4CE054E40E94BD2256
:101B800087FF0BC011E026E636E646EE53E4C701B8
:101B9000B6010E941C2418160CF010E00E94FB03F2
:101BA000681979098A099B09613D7740810591058A
:101BB00010F4112371F20E94FB036F8B788F898FD1
:101BC0009A8F10E000E01C821B822BA13CA1205CBC
:101BD0003F4F3C8F2B8F4BA15CA14C5B5F4F5E87CF
:101BE0004D878BA19CA1885B9F4F9E8F8D8FABA152
:101BF000BCA1A45BBF4FB88BAF87EBA1FCA1E05B9E
:101C0000FF4FF8A3EF8F2BA13CA12C5A3F4F3A8BEB
:101C1000298B4BA15CA1465A5F4F58874F838BA1FC
:101C20009CA1855A9F4F9A838983ABA1BCA1A85AD6
:101C3000BF4FBAA3A9A30E94FB032F89388D498DFA
:101C40005A8D621B730B840B950B603D77408105A9
:101C5000910508F027C10F5F1F4FEBA1FCA184A5E0
:101C600095A5A6A5B7A580A791A7A2A7B3A7848984
:101C70000E946703ABA1BCA195969C938E93949709
:101C800056968C910E9467039C878B87EBA1FCA1E1
:101C900097A386A384A895A8A6A8B7A824A035A032
:101CA000B101032C000C880B990B0E946C236B0173
:101CB0007C01A50194010E94502220E030E040E820
:101CC0005AE30E942124A50194010E9451229B0104
:101CD000AC01ABA1BCA1D4962D933D934D935C93E5
:101CE000D797C701B6010E9450224B015C01EBA1BE
:101CF000FCA184A695A6A6A6B7A640AC51AC62AC42
:101D000073AC2B853C85B901330F880B990B0E946E
:101D10006C236B017C01A30192010E94502220E000
:101D200030E040E85AE30E942124A30192010E947E
:101D300051229B01AC01ABA1BCA1D8962D933D9340
:101D40004D935C93DB97C701B6010E9450226B0153
:101D50007C01EBA1FCA1C0AAD1AAE2AAF3AAA50129
:101D60009401C501B4010E9421249B01AC01AB8DFB
:101D7000BC8D2D933D934D935C931397ED85FE851C
:101D800060817181828193810E945122AD85BE85DF
:101D90006D937D938D939C931397A7019601C70133
:101DA000B6010E9421249B01AC01ED8DFE8D2083A4
:101DB000318342835383AF85B8896D917D918D9135
:101DC0009C910E945122EF85F88960837183828300
:101DD0009383ABA1BCA198964D905D906D907C9043
:101DE0009B97A3019201C501B4010E945022EBA16F
:101DF000FCA120A131A142A153A10E942124A30151
:101E000092010E9451229B01AC01ABA1BCA1DC96C6
:101E10002D933D934D935C93DF97C701B6010E94CC
:101E200021249B01AC01EF8DF8A1208331834283F3
:101E30005383A989BA896D917D918D919C910E945E
:101E40005122E989FA896083718382839383A9810E
:101E5000BA818C91EF81F8858083A9A1BAA18D9177
:101E60009C91821593050CF0FBC021E0E981FA8179
:101E70002083E981FA8180810130110519F4AF8155
:101E8000B8858C93EF81F8859081981731F02B817C
:101E90003C812F5F3F4F3C832B83EB81FC81749708
:101EA00009F0C9CE4B895C89BA01550F880B990B93
:101EB0000E946C2320E030E04AE754E40E94C222F2
:101EC00020E030E040E85AE30E9421242B013C014D
:101ED000ABA1BCA158962D913D914D915C915B9722
:101EE0000E9421244B015C01B80190E080E00E9437
:101EF0006A236B017C01EBA1FCA1EC5BFF4FFA8331
:101F0000E983AC019B0160817181828193810E9490
:101F1000C2220E9494249B01AC01C501B4010E941D
:101F200021246B837C838D839E83ABA1BCA11C96F3
:101F30006D937D938D939C931F975C962D913D910E
:101F40004D915C915F97C301B2010E9421242B0146
:101F50003C010BA11CA1045B1F4FA7019601F801D6
:101F600060817181828193810E94C2220E949424A7
:101F70009B01AC01C301B2010E9421246F837887C9
:101F800089879A87ABA1BCA150966D937D938D9361
:101F90009C9353971D01B4E52B0E311CA3019201B4
:101FA000C501B4010E942124F101208131814281C7
:101FB00053810E942124A70196010E94C2226B0135
:101FC0007C01ABA1BCA1CD92DD92ED92FC92139766
:101FD0002F81388549855A856B817C818D819E81D1
:101FE0000E9421249B01AC01EBA1FCA12483358339
:101FF00046835783C701B6010E94C222ABA1BCA190
:1020000018966D937D938D939C931B97E981FA812C
:102010001082118212821382D8011D921D921D928C
:102020001C921397F1011082118212821382A496DE
:102030000FB6F894DEBF0FBECDBFDF91CF911F91D9
:102040000F91FF90EF90DF90CF90BF90AF909F9057
:102050008F907F906F905F904F903F902F9008955A
:10206000A981BA811C9205CF2F923F924F925F9225
:102070006F927F928F929F92AF92BF92CF92DF9298
:10208000EF92FF920F931F93CF93DF9300D000D076
:10209000CDB7DEB79C838B830E94D4036B0108EC21
:1020A00015E08B819C81885B9F4F9A8389832B806D
:1020B0003C809CE4290E311CEB81FC8186890E94C6
:1020C0006703EB81FC8197A386A340AC51AC62AC63
:1020D00073ACBC01990F880B990B0E946C234B01C8
:1020E0005C01A30192010E94502220E030E040E810
:1020F0005AE30E942124A30192010E9451229B01D4
:10210000AC01EB81FC8120AF31AF42AF53AFC501D1
:10211000B4010E945022EB81FC8160AB71AB82ABB9
:1021200093AB9B01AC010E942124E981FA81608379
:10213000718382839383F1012081318142815381B4
:102140000E945122F1016083718382839383015045
:10215000110909F0B1CF20E030E049EB54E40E94CE
:10216000C2220E9494244B015C01B601DD0C880B55
:10217000990B0E946C2320E030E04AE754E40E946F
:10218000C22220E030E040E85AE30E942124EB81A3
:10219000FC81248D358D468D578D0E942124A5010B
:1021A00094010E942124EB81FC81608B718B828BD6
:1021B000938BF10110821182128213820F900F9083
:1021C0000F900F90DF91CF911F910F91FF90EF90A3
:1021D000DF90CF90BF90AF909F908F907F906F9047
:1021E0005F904F903F902F900895FB010190002049
:1021F000E9F73197AF01461B570BDC01ED91FC91DC
:102200000280F381E02D09946EE471E085EA94E0A8
:102210000C94F510CF93DF93BC0185EA94E00E9403
:102220003004EC010E9404118C0F9D1FDF91CF91AF
:1022300008958F929F92AF92BF92EF92FF920F9369
:102240001F93CF93DF93CDB7DEB7A1970FB6F89466
:10225000DEBF0FBECDBF7C01FA01CB0119A2223037
:1022600008F42AE08E010F5D1F4F822E912CB12CB5
:10227000A12CBF01A50194010E94CC21F901CA0142
:102280006A300CF5605DD8016E938D01232B242BF1
:10229000252B79F790E080E0109721F0BD01C70170
:1022A0000E94F510A1960FB6F894DEBF0FBECDBF09
:1022B000DF91CF911F910F91FF90EF90BF90AF9062
:1022C0009F908F900895695CDECFCF92DF92EF925E
:1022D000FF92CF93DF936C01990FEE08FF086A30ED
:1022E0007105E1F42AE0F7FE1AC08DE20E94410573
:1022F000EC0144275527BA014C195D096E097F0985
:102300002AE085EA94E00E9419118C0F9D1FDF914D
:10231000CF91FF90EF90DF90CF900895262FB701D7
:10232000A60185EA94E0DF91CF91FF90EF90DF90D6
:10233000CF900C941911462F50E070E060E02AE035
:102340000C9419110F931F93CF938C0160E770E0E9
:1023500085EA94E00E943004809107048F716AE05E
:1023600070E090E00E9465116EE670E085EA94E00E
:102370000E943004C0E08C2F90E080179107A4F4F5
:10238000875F9B4FFC01408150E070E060E02AE0F5
:1023900085EA94E00E9419116CE670E085EA94E009
:1023A0000E943004CF5FE7CF6AE670E085EA94E0F0
:1023B0000E9430048091400290E0959587956AE0F4
:1023C00070E09195819591090E94651168E670E031
:1023D00085EA94E00E943004CF911F910F910C94F4
:1023E00004114F925F926F927F928F929F92AF9261
:1023F000BF92CF92DF92EF92FF920F931F93CF93F2
:102400006B017C01742EAC019B010E94D42461E518
:1024100071E0811126C046015701E894B7F82FEF0B
:102420003FEF4FE75FE7C501B4010E94D42481115B
:102430000CC02FEF3FEF4FE75FE7C501B4010E94EB
:10244000BD2265E571E0181664F02FEF3FEF4FE70E
:102450005FE4C701B6010E941C241816ACF469E5BC
:1024600071E085EA94E0CF911F910F91FF90EF907A
:10247000DF90CF90BF90AF909F908F907F906F90A4
:102480005F904F900C94F5102FEF3FEF4FE75FEC0C
:10249000C701B6010E94BD2287FDE1CF20E030E0F8
:1024A000A901C701B6010E94BD2210E000E087FF2C
:1024B00008C08DE20E9441058C01F7FAF094F7F80C
:1024C000F094C0E060E070E080E09FE37C1641F0B3
:1024D00020E030E040E251E40E94C222CF5FF6CF1C
:1024E000A70196010E9451222B013C010E943B232F
:1024F0004B015C012AE0BC01A40185EA94E00E9442
:1025000019117C01E00EF11ECC23C1F1C501B4010B
:102510000E946A239B01AC01C301B2010E945022B8
:102520004B015C018EE20E944105E80EF91EC1508C
:1025300028F120E030E040E251E4C501B4010E94FE
:1025400021242B013C010E943B234B01B12CA12CE7
:102550002AE0B501A40185EA94E00E941911E80E71
:10256000F91EC501B4010E946A239B01AC01C3019D
:10257000B2010E9450224B015C01D9CFC701CF911B
:102580001F910F91FF90EF90DF90CF90BF90AF9091
:102590009F908F907F906F905F904F900895CF9312
:1025A000DF9342E00E94F111EC010E9404118C0FB4
:1025B0009D1FDF91CF91089585ED8093BC008091A0
:1025C000760490917704A0917804B09179040796ED
:1025D000A11DB11D23E0B695A795979587952A95DE
:1025E000D1F72091BC0024FD03C01092740408951B
:1025F0004091760450917704609178047091790449
:10260000452B462B472B69F30097A105B10541F0F7
:1026100025E32A95F1F700000197A109B109E1CF5F
:10262000809175040C943A071F920F920FB60F9287
:1026300011242F933F938F939F93AF93BF938091D8
:10264000F9039091FA03A091FB03B091FC03309140
:10265000F80323E0230F2D3758F50196A11DB11D76
:102660002093F8038093F9039093FA03A093FB035C
:10267000B093FC038091FD039091FE03A091FF03B2
:10268000B09100040196A11DB11D8093FD039093AC
:10269000FE03A093FF03B0930004BF91AF919F91FD
:1026A0008F913F912F910F900FBE0F901F90189513
:1026B00026E8230F0296A11DB11DD2CF1F920F92C3
:1026C0000FB60F9211242F933F934F935F936F9305
:1026D0007F938F939F93AF93BF93EF93FF93E0917B
:1026E0000B01F0910C010995FF91EF91BF91AF9112
:1026F0009F918F917F916F915F914F913F912F911A
:102700000F900FBE0F901F9018951F920F920FB64B
:102710000F9211242F933F934F935F936F937F9367
:102720008F939F93AF93BF93EF93FF93E091090132
:10273000F0910A010995FF91EF91BF91AF919F919F
:102740008F917F916F915F914F913F912F910F905A
:102750000FBE0F901F9018951F920F920FB60F92F9
:1027600011242F933F934F935F936F937F938F9396
:102770009F93AF93BF93EF93FF9385EA94E00E94FA
:10278000D204FF91EF91BF91AF919F918F917F9173
:102790006F915F914F913F912F910F900FBE0F90CE
:1027A0001F9018951F920F920FB60F9211242F931E
:1027B0008F939F93EF93FF93E091B504F091B6044C
:1027C0008081E091BB04F091BC0482FD1BC090812C
:1027D0008091BE048F5F8F732091BF04821741F0F8
:1027E000E091BE04F0E0EB55FB4F958F8093BE0463
:1027F000FF91EF919F918F912F910F900FBE0F90AE
:102800001F9018958081F4CF1F920F920FB60F92F0
:1028100011242F933F934F935F936F937F938F93E5
:102820009F93AF93BF93EF93FF938091B900887FFD
:10283000803609F44AC0F0F5883209F4A7C018F5CB
:10284000803109F49BC0B8F4882309F4F9C08830BA
:1028500009F494C0FF91EF91BF91AF919F918F9137
:102860007F916F915F914F913F912F910F900FBE8C
:102870000F901F901895883109F488C0803251F765
:102880008093720414C0803409F49DC040F48033F6
:10289000B9F38833F9F68093720485ECB0C08035C3
:1028A00009F485C0883509F496C0883499F60E94E9
:1028B000DC12D0CF883909F48CC038F5883729F07C
:1028C00050F4883611F0803729F683E08093740441
:1028D00010923F0257C0883809F47BC0803919F044
:1028E000803809F0B7CF80913F02803208F071C084
:1028F000E0913F0281E08E0F80933F028091BB0008
:10290000F0E0E15EFD4F80833DC0803B39F0E0F4B4
:10291000803A09F479C0883A09F09CCF84E080932A
:10292000740410921E0210921D02E0914102F09177
:102930004202099580911D0281110FC081E08093B0
:102940001D021092FD0109C0803C09F4A6CF883C0D
:1029500009F4A3CF883B09F07DCFE0911E0281E00E
:102960008E0F80931E02F0E0E350FE4F8081809333
:10297000BB0090911E0280911D0229C080914F04DE
:102980008093BB0085EC8093BC0064CF9091710470
:1029900080917004981758F5E091710481E08E0FD2
:1029A00080937104F0E0E05BFB4F8081E9CFE09120
:1029B000710481E08E0F809371048091BB00F0E080
:1029C000E05BFB4F808390917104809170049817B5
:1029D000C8F285E8D8CFE091710481E08E0F809332
:1029E00071048091BB00F0E0E05BFB4F808380913D
:1029F000730481115CCF81E080934E0484EA80935C
:102A0000BC001092740426CF85EC8093BC00109219
:102A1000740480913F02803230F4E0913F02F0E094
:102A2000E15EFD4F108260913F0270E0E091430251
:102A3000F09144028FE192E0099510923F020ACF93
:102A40001092720434CF1F920F920FB60F9211247E
:102A50008F938091D7018F5F8093D7018F910F90D3
:102A60000FBE0F901F901895E5EAF4E013821282D2
:102A700088EE93E0A0E0B0E084839583A683B783DB
:102A800022E231E03183208325EC30E03587248752
:102A900024EC30E03787268720EC30E0318B208B28
:102AA00021EC30E0338B228B22EC30E0358B248B11
:102AB00026EC30E0378B268B118E128E138E148EFF
:102AC000E2E4F5E01382128284839583A683B783C0
:102AD00084E391E091838083E3E7F5E0138212823F
:102AE00086E491E091838083148211861286138696
:102AF00060E084E00E942B03EFE3F5E0E491A5E6BB
:102B0000B5E0EC93EBE2F5E0E491F0E0EE0FFF1FAF
:102B1000E35EFA4F8591949112969C938E93119750
:102B20001B961C921B971D961C921D971C961C921F
:102B30001C971A961C921A9719961C921997189618
:102B40001C92189717961C92179716961C92169718
:102B500015961C92159714961C92149713961C9216
:102B60001397EEE4F5E0168A158A1182B287A187E1
:102B700017821086108289E0838381E084838583B5
:102B800086830895CF93DF93CDB7DEB7EC970FB66A
:102B9000F894DEBF0FBECDBF789484B5826084BD4B
:102BA00084B5816084BD85B5826085BD85B5816051
:102BB00085BD80916E00816080936E0010928100CF
:102BC000809181008260809381008091810081608A
:102BD000809381008091800081608093800080914B
:102BE000B10084608093B1008091B00081608093D7
:102BF000B00080917A00846080937A0080917A009E
:102C0000826080937A0080917A00816080937A005C
:102C100080917A00806880937A001092C10064E607
:102C200070E080E090E00E94A1038091F30388238C
:102C300009F495C080E090E0A2E0B3E48093EF0354
:102C40009093F003A093F103B093F20388E780938D
:102C5000EE0361E089E00E942B0361E089E00E94BD
:102C6000FD0262E088E00E942B0361E085E00E94A3
:102C70002B0360E085E00E94FD0262E083E00E9499
:102C80002B03E091B504F091B60482E08083E091DB
:102C9000B104F091B2041082E091B304F091B40455
:102CA00083E380831092BD04E091B904F091BA04EB
:102CB00086E08083E091B704F091B8048081806160
:102CC0008083E091B704F091B804808188608083AC
:102CD000E091B704F091B804808180688083E0912E
:102CE000B704F091B80480818F7D808363EB70E03E
:102CF00085EA94E00E94300466EA74E085EA94E094
:102D00000E94F5100E9404118DE990E00E940A11C2
:102D100082E990E00E940A116AE070E080E090E0B1
:102D20000E94A10340910701609106018091050175
:102D30000E94970B0AE010E010930803009307032A
:102D40000E948405811119C00E94B7059093510219
:102D5000809350028091500290915102F1CF86E60B
:102D600096E6A0E8B3E48093EF039093F003A0937A
:102D7000F103B093F20386EE6ACF46E267E073E0B8
:102D800080E00E94810664E670E080E090E00E94AE
:102D9000A1030150110980F680919E04843064F4EF
:102DA00083B7817F8C6083BF83B7816083BF889541
:102DB00083B78E7F83BFF0CF109208031092070372
:102DC000E0915705F09158051386158614861286F2
:102DD0001186108617821682158214821382109231
:102DE00055051092560511E0BE016F5F7F4F80912F
:102DF0005705909158050E94570C882309F45FC02D
:102E000067E0CE0101960E94DE0898858913ECCF19
:102E1000809155058F5F809355058981883231F007
:102E200008F044C0803111F08232F1F680915605ED
:102E30008F5F8093560580914E05811128C0809147
:102E40005705909158050E949B09BE016F5F7F4F07
:102E500080915705909158050E947C0940E064EBF1
:102E600080915705909158050E9448098091570517
:102E7000909158050E94F508082F80915705909170
:102E800058050E949B09011102C010934E058981CB
:102E9000803199F0CE0101960E94450A909151052A
:102EA000981708F0A1CF809351059ECF8B3309F47A
:102EB000BDCF823409F098CFB9CF8CE0EFCF00912D
:102EC0005505009304037BE9E72E72E0F72E10E02E
:102ED000101759F0612FC7010E94D70C38E0E30E9C
:102EE000F11C882311F01F5FF3CFF12C5FE7E52E73
:102EF0006CE0D62E80910403F81608F0B6C048E0C6
:102F0000F49E8001112405561D4FD8018C9180310B
:102F100009F46BC0BE016F5F7F4FC8010E94D309E7
:102F2000882309F462C08D818F3709F45EC0ED8279
:102F300080915705909158050E949B09B801809196
:102F40005705909158050E947C0940E06EE48091FD
:102F50005705909158050E94480940E06B81809187
:102F60005705909158050E94480940E06C81809176
:102F70005705909158050E944809F80180818031D9
:102F800041F040E06D8180915705909158050E9475
:102F900048098091570590915805209154052223A6
:102FA00011F10E949B09882301F1B8018091570516
:102FB000909158050E947C0940914E0568E48091EB
:102FC0005705909158050E94480980914E0581113E
:102FD0002FC064E170E080E090E00E94A103809146
:102FE0005705909158050E949B09D09251058091F8
:102FF00055058230C0F110E080915505181798F5FD
:10300000809151058C3079F1612FCE0101960E949B
:10301000D70C8981803129F1CE0101960E94450AA1
:1030200090915105981710F4809351051F5FE4CFDC
:1030300080914F05882329F060E0809150050E941F
:10304000FD0264E170E080E090E00E94A1038091C5
:103050004F05882321F261E0809150050E94FD0216
:10306000BECF8CE0DDCFF39445CF811118C4109210
:103070000503109246021092450210927B041092B2
:103080009D040E941C078EE294E09093420280937C
:1030900041028FE294E09093440280934302809136
:1030A000000111E010937A0480939C040E945B0756
:1030B000882309F4FEC38091020110937A0480935F
:1030C0009C0410927B0410929D040E945B0788234D
:1030D00009F404C46DE571E085EA94E00E94F510FE
:1030E0000E94041180E090E080934B0290934C0288
:1030F0001AA619A646E451E058A74FA38BA720E1D2
:1031000028AB92E099AB1AAA1C821B825A8349838E
:103110008D832A879B871C86109246021092450257
:1031200010927B0410929D040E941C078EE294E092
:1031300090934202809341028FE294E09093440284
:10314000809343021E828B85823010F098E09E832C
:10315000898762E370E080E090E00E94A1036C85C3
:10316000CE0101960E94C80868EE73E080E090E00E
:103170000E94A10360E3CE0101960E940E0D0BE4B4
:1031800016E4C8010197F1F760E3CE0101960E94B1
:103190000E0DC8010197F1F760E3CE0101960E9480
:1031A0000E0D83E592E00197F1F760E2CE01019602
:1031B0000E940E0D6E81606240E0CE0101960E9479
:1031C000270D84E08F8340E06CE0CE0101960E94E1
:1031D000270DCE0101960E946F0D82E0888740E0A6
:1031E00066E0CE0101960E94270D40E062E0CE012C
:1031F00001960E94270D8BE39FE10197F1F788E08C
:103200008C8760E0CE0101960E94C8086AEC70E0ED
:10321000CE0101960E94300466EA74E0CE01019668
:103220000E94F510CE0101960E943E0D6CEB70E0FD
:10323000CE0101960E94300460ED77E080E090E0DE
:103240000E94A10381E00E946703181619062CF45E
:10325000809106038F5F8093060382E00E946703DC
:10326000181619062CF4809106038F5F80930603CD
:1032700060E089E00E94FD0261E08EE00E942B0385
:1032800061E08EE00E942B0361E08EE00E94FD026F
:1032900061E08EE00E942B0360E08EE00E94FD0260
:1032A00060E08EE00E942B0364EF71E080E090E02C
:1032B0000E94A10304EF16E0C12CD12C760180E01E
:1032C0000E946703DC01B2509D010E941322C60ECA
:1032D000D71EE81EF91E0150110989F7C701B60172
:1032E0000E946A2320E030E84EED54E40E94C2229E
:1032F0000E94942422E538EB4EE55FE30E942124EE
:1033000060934702709348028093490290934A0267
:1033100020E030E044EB52E40E941C2418160CF02C
:10332000E0C281E080932D0380914B021C821B82BE
:1033300026E431E03A8329838D8380E18A8782E025
:103340008B871C86CE0101960E946F0D88E08C87CA
:1033500060E0CE0101960E94C80866E772E085EA47
:1033600094E00E9430046DEC7CEC85EB92E40E94CA
:10337000CF126BE672E085EA94E00E9430046DECB7
:103380007CEC85EB92E40E94CF1261E672E085EA64
:1033900094E00E943004609147027091480280914D
:1033A000490290914A0242E00E94F1118FE592E0B9
:1033B0000E940A1180912D03882309F495C26EE4BE
:1033C00072E0CE0101960E94300483E292E00E94F6
:1033D0000A118091F303882331F067E172E085EAF6
:1033E00094E00E94300460E172E085EA94E00E947B
:1033F00030046091EF037091F0038091F10390919C
:10340000F2030E94CF1269E072E085EA94E00E9424
:1034100030046091EE0385EA94E00E949B1187E0FE
:1034200092E00E940A1169EF71E085EA94E00E943F
:1034300030046AE979E989ED9FE30E94CF12CE0159
:1034400001960E943E0D66E971E0CE0101960E9450
:1034500030048091060381116AC287E891E00E94DE
:103460000A116FE771E0CE0101960E94300460ED11
:1034700077E080E090E00E94A1038091050388231B
:1034800009F470C261E771E085EA94E00E943004BB
:103490006091040385EA94E00E949B1188E691E024
:1034A0000E940A11CE0101960E946F0D6DE571E038
:1034B000CE0101960E94300460910403CE01019672
:1034C0000E949B11CE0101960E943E0D60E571E0C5
:1034D000CE0101960E94300460ED77E080E090E03C
:1034E0000E94A103CE0101960E946F0D6AE171E076
:1034F000CE0101960E943004CE0101960E943E0D3D
:103500006EE071E0CE0101960E9430048FEF90E0F2
:103510000E940A1169EF70E085EA94E00E9430048D
:103520006091050185EA94E00E949B1162EF70E0D2
:1035300085EA94E00E94300480910601813031F4E4
:103540006BEE70E085EA94E00E9430048091060101
:10355000823031F464EE70E085EA94E00E94300439
:1035600080910601833031F46DED70E085EA94E0DE
:103570000E94300463ED70E085EA94E00E9430041C
:103580006AE070E080910701909108010E94651146
:103590000E9404118DE992E00E94650B64E170E0E5
:1035A00080E090E00E94A10387E094E090930C01FA
:1035B00080930B0180916900837F8860809369000C
:1035C000E99A1092290310922A0310922B03109269
:1035D0002C0381E090E09093A9038093A8034DEC25
:1035E0005CEC65EB72E44093AE035093AF036093E1
:1035F000B0037093B10380E090E0A0E0B4E4809366
:10360000CA039093CB03A093CC03B093CD0322E0E5
:1036100030E030934D0320934C034093520350937A
:103620005303609354037093550380936E039093F8
:103630006F03A0937003B093710320912D03222395
:1036400009F444C00091EF031091F0032091F103BD
:103650003091F2031092A7031092A6030093AA03DD
:103660001093AB032093AC033093AD034AE959E9BF
:1036700069ED7FE34093B2035093B3036093B403C7
:103680007093B5038093C6039093C703A093C803B8
:10369000B093C90310924B0310924A0300934E0358
:1036A00010934F03209350033093510340935603DC
:1036B00050935703609358037093590380936A03A0
:1036C00090936B03A0936C03B0936D037E01F7E2BC
:1036D000EF0EF11C412C512C612C34E4732E45E685
:1036E000242E45E0342E0E94FB036093F403709374
:1036F000F5038093F6039093F7038091F3038823F7
:1037000009F44BC120E030E042E053E42093EF03A2
:103710003093F0034093F1035093F20388E78093D2
:10372000EE038091EF039091F003A091F103B0912B
:10373000F2031092A7031092A6038093AA0390931A
:10374000AB03A093AC03B093AD032AE939E949ED8B
:103750005FE32093B2033093B3034093B4035093D9
:10376000B5034092C6035092C7036092C80370929B
:10377000C90310924B0310924A0380934E03909317
:103780004F03A0935003B0935103209356033093FB
:103790005703409358035093590340926A03509241
:1037A0006B0360926C0370926D03EEEEF4E0849113
:1037B000E3E4F5E00491EFE2F5E01491112379F0F0
:1037C00081110E94D402E12FF0E0EE0FFF1FE35EB3
:1037D000FA4FA591B491EC910E2360E009F461E0F9
:1037E00085E00E94FD0285EA94E00E94B204892BE4
:1037F000F9F085EA94E00E94900490ED980F9A30D9
:1038000008F0D9C040914E0250914F029AE0949F27
:103810009001959F300D112420533109280F311D3F
:1038200087FD3A9530934F0220934E020E947B0B06
:103830000E94B705909351028093500280915002EC
:1038400090915102019609F4F7C180915002909134
:103850005102892B09F0E2C16AEB74E085EA94E039
:103860000E9430048091080490E00E94A21180918F
:10387000070485FF11C08091070487FD0DC080916A
:10388000070486FDC9C1809107048F71806C40E0F8
:1038900070E060E00E9481060E947B0BCDC191E048
:1038A000909305038E3008F4E4CB8DE080930403FD
:1038B000E0CB00E011E06BE671E085EA94E00E9465
:1038C000F51060E170E0D8018D919C910E94651126
:1038D0000E940411F8018081918106CC02E011E080
:1038E000EACF10922D0320CD69EE71E0CE01019652
:1038F0000E9430048BEB91E00E940A118091F30347
:10390000882321F082EB91E00E940A1162EA71E0C3
:1039100085EA94E00E9430046091EE0385EA94E029
:103920000E949B1180EA91E00E940A1188CD6CE709
:1039300071E085EA94E00E94F5106091060385EA43
:1039400094E00E949B1166E871E085EA94E00E9491
:10395000F51060910603CE0101960E949B1169E764
:1039600071E081CD8DE391E00E940A11CE010196B4
:103970000E946F0D62E371E0CE0101960E94300457
:1039800060910403CE0101960E949B11CE01019625
:103990000E943E0D65E271E09BCD86E696E6A0E8CA
:1039A000B3E48093EF039093F003A093F103B093FB
:1039B000F20386EEB4CE8C3299F4E0914D02E634F7
:1039C00050F480914E0291E09E0F90934D02F0E0F2
:1039D000EE5AFD4F808310924F0210924E0226CF76
:1039E00081320CF4B0C0EFE9E80FE63108F006C10F
:1039F0000E2E000CFF0BE150F34E0C940D22F31D24
:103A0000241DFE1DFE1DFE1DFE1DB61DFE1D151DE9
:103A1000FE1DFE1DFE1DFE1DFE1DFE1DC11DD51D34
:103A2000FE1DF31DFE1DFE1DE01D80914E029091B6
:103A30004F02009749F08093050140910701609182
:103A400006010E94970B1CC080914E02843071F4D5
:103A500081E090E090934F0280934E0261E060938A
:103A600006014091070180910501EBCF883009F4F0
:103A700075C0893009F46AC010924F0210924E024C
:103A80006BE972E085EA94E00E94300480910501C0
:103A90008F71805C0E94410568E972E085EA94E0DC
:103AA0000E943004809105018F716AE070E090E01F
:103AB0000E94651165E972E085EA94E00E94300495
:103AC0006AE070E080910701909108010E94651101
:103AD00061E972E085EA94E00E9430048091060179
:103AE000813009F490C0823009F490C0833009F02D
:103AF00090C083E993E06AE070E00E9465116CE891
:103B000072E085EA94E00E94300469E872E085EA98
:103B100094E00E943004809104016AE070E090E03B
:103B20000E94651163E872E085EA94E00E94300427
:103B30008091F3036AE070E090E00E94651181E8F3
:103B400092E00E940A1110924D0245CF83E090E06E
:103B500090934F0280934E0263E081CF82E090E029
:103B600090934F0280934E0262E079CF40914E02D3
:103B700080914F02409307018093080160910601F4
:103B800072CF80914E0290914F02009709F478CF46
:103B90008130910519F41092F30372CF029709F066
:103BA0006FCF81E08093F3036BCF81E020914E02D1
:103BB00030914F02232B09F480E08093040160CF01
:103BC0006EEA74E085EA94E00E94300466EA74E0EC
:103BD00085EA94E00E94F51064EA74E085EA94E0D6
:103BE0000E9430044DCF80939A0280914D028093C1
:103BF000990280914E028093980242CF8DE992E023
:103C00000E94650B3DCF81EB91E075CF84E693E098
:103C100072CF90E080E06FCF80E839CE80910401D0
:103C200081110AC067EB74E085EA94E00E943004D9
:103C300084E190E00E94A21180919A028823C1F150
:103C40000E9484058823A1F161E089E00E94FD02C1
:103C500068EC70E080E090E00E94A10360E089E001
:103C60000E94FD0281EC94E00E94650B4091990254
:103C700050E070E060E02AE085EA94E00E941911CB
:103C80008DEB94E00E94650B80919A02813609F0D9
:103C900028C280E290919802992311F09064892BB8
:103CA0004091990262E572E00E94810610929A02A8
:103CB0008090F4039090F503A090F603B090F70382
:103CC0008091320390913303A0913403B091350376
:103CD000A5019401281B390B4A0B5B0BDA01C901C2
:103CE00081369A4EA105B10580F04091070160919F
:103CF0000601809105010E94970B809232039092F9
:103D00003303A0923403B092350380912E03909137
:103D10002F03A0913003B0913103881A990AAA0A9F
:103D2000BB0A49E8841643E19406A104B10408F4EF
:103D3000F7C261E089E00E94FD0262E370E080E08A
:103D400090E00E94A10360E089E00E94FD0281E012
:103D50000E94670310912D03181619060CF0D9C1A3
:103D600082E993E0112309F4BEC10E947E0D6091A7
:103D700092037091930380919403909195030E9414
:103D80003423709308036093070320E030E048EC8D
:103D900052E460919E0370919F038091A0039091E3
:103DA000A1030E9421240E94342370930E03609388
:103DB0000D0382E00E946703181619060CF0C4C1B7
:103DC00086E393E0112309F4A9C10E947E0D60915E
:103DD00036037091370380913803909139030E9424
:103DE000342370930A036093090320E030E048EC29
:103DF00052E4609142037091430380914403909197
:103E000045030E9421240E94342370930E03609383
:103E10000D038091070390910803209109033091CD
:103E20000A03820F931F90930C0380930B038091DE
:103E30000603111182C2882351F08091EE0354E6EB
:103E4000859FC001112490930E0380930D038091F0
:103E50000503882309F400C2809157059091580505
:103E60000E949B0940E06CEC8091570590915805A9
:103E70000E94480940914E0564E480915705909155
:103E800058050E94480980915205882311F1E0915C
:103E9000510580915305882309F45BC180914E053B
:103EA000811157C10E94FB034B015C0180915705B2
:103EB000909158050E94F508813059F00E94FB034B
:103EC000681979098A099B096E3E7240810591053E
:103ED00068F36EEE72E080E090E00E94A1031CAEF9
:103EE00080910403BCADB81708F0B6C1CB2ED12C1D
:103EF000860183E0000F111F8A95E1F705561D4FDB
:103F0000F8018081863209F04EC13A8229821C83F1
:103F10000B83F7E0FD831E821F82188619861A869E
:103F20001B861C861D861E861F86188A198A21E01C
:103F30002E8B1A8A1B8A1C8A1D8A0E94FB036A8B9D
:103F40007B8B8C8B9D8B1D8110FD03C0143009F081
:103F50005AC0B701CE0101960E94AA0A882309F42B
:103F600093C014708FA1877F8FA3B701CE010196F4
:103F70000E941C0B61E0111101C060E0CE010196AE
:103F80000E94720A882309F47FC0BE016D5C7F4FD6
:103F9000CE0101960E94AA0A882309F475C0112354
:103FA000B9F06CA97DA913E0759567951A95E1F7AD
:103FB000072E000C880B990B0E946C2320E030E048
:103FC00040E05DE30E9421246E837F838887998788
:103FD0008D8180FF18C06FA970E0762F6627662755
:103FE00073708EA9682B072E000C880B990B0E940A
:103FF0006C2320E030E048EC52E40E94C2226A8741
:104000007B878C879D871D8111FF3DC012FFC9C032
:1040100031E013271170B701CE0101960E94AA0A60
:10402000882391F18FA188608FA3B701CE010196FB
:104030000E941C0B612FCE0101960E94720A8823F8
:1040400019F1BE016D5C7F4FCE0101960E94AA0A54
:104050008823D1F01123B9F06CA97DA9A3E075954F
:104060006795AA95E1F7072E000C880B990B0E9423
:104070006C2320E030E040E05DE30E9421246E8369
:104080007F83888799871E8A8E89812C912CFCE5F5
:10409000AF2EF2ECBF2E811104C08E809F80A884C9
:1040A000B98420E030E04AEF52E4C501B4010E9437
:1040B000BD2287FF7AC020E030E04CE552ECC5011C
:1040C000B4010E941C2418160CF06FC020E030E0F0
:1040D00040E251E4C501B4010E9421240E9434232E
:1040E00066C080E0D7CD0E9434104B015C01609126
:1040F000EE0370E090E080E00E946C23A501940143
:104100000E9421240E9434237093080360930703C4
:1041100050CE10920803109207034BCE0E94341029
:104120004B015C016091EE0370E090E080E00E9442
:104130006C23A50194010E9421240E9434237093D2
:104140000A036093090365CE10920A0310920903D3
:1041500060CEE9508EEE92E0E33038F4F0E0EE0FFE
:10416000FF1FEB5EFE4F808191814C01990FAA08E1
:10417000BB0880914F05882329F060E080915005AD
:104180000E94FD02C501B4010E94A10380914F0568
:10419000882309F49ECE61E0809150050E94FD02C3
:1041A00098CE10E038CF883269F069EC7FEFF601E5
:1041B000EE0FFF1FE15FFC4F718360832CAD2F5F1B
:1041C0002CAF8ECEBE016F5F7F4FC8010E94D30916
:1041D000882359F36A8170E0762F6627770F770F6F
:1041E000770F298148E0249F90011124262B372B3B
:1041F000D8018C918031E1F468856623C9F070E0C4
:104200008F81FB01E81BF109CF019695982F882734
:10421000979587950E94B821CB018097B90153E00B
:10422000660F771F5A95E1F760789C01260F371FBC
:104230002138F4EE3F070CF4B8CFB901330F880BE7
:10424000990B0E946C2320E030E040E05CE30E9488
:1042500021244B015C0125CF809103038823D1F0F9
:10426000F894209103038091290390912A03A0914F
:104270002B03B0912C03820F911DA11DB11D8093C2
:10428000290390932A03A0932B03B0932C0310923D
:104290000303789486E2E7E0F3E0DE0111960190F3
:1042A0000D928A95E1F76EEC74E085EA94E00E9445
:1042B00030046091050185EA94E00E949B118E0113
:1042C0000F5F1F4F6CEC74E085EA94E00E943004AD
:1042D000D8016D918D0185EA94E00E949B11E01652
:1042E000F10681F766EC74E085EA94E00E94300400
:1042F0000E9404116AE070E080E090E00E94A10357
:104300008091F4039091F503A091F603B091F70327
:1043100080932E0390932F03A0933003B093310327
:1043200080E090E0892B09F4DEC90E94BE04882356
:1043300009F4D0C90E940000CDC9811188CD82E95D
:1043400093E00E947E0D20E030E048EC52E4609162
:104350009E0370919F038091A0039091A1030E94FE
:1043600021240E94342370930E0360930D036FCDBC
:1043700097FB072E16F4009407D077FD09D00E9412
:104380003C2207FC05D03EF4909581959F4F0895FF
:10439000709561957F4F0895A1E21A2EAA1BBB1B51
:1043A000FD010DC0AA1FBB1FEE1FFF1FA217B30701
:1043B000E407F50720F0A21BB30BE40BF50B661F17
:1043C000771F881F991F1A9469F7609570958095DB
:1043D00090959B01AC01BD01CF010895052E97FB7F
:1043E0001EF400940E94052257FD07D00E94CC21A4
:1043F00007FC03D04EF40C9405225095409530955F
:1044000021953F4F4F4F5F4F089590958095709540
:1044100061957F4F8F4F9F4F0895EE0FFF1F0590BF
:10442000F491E02D09940E941B22332312F48A1B7D
:104430009B0B0C942C22A29FB001B39FC001A39FA1
:10444000700D811D1124911DB29F700D811D1124CD
:10445000911D08950E941B22B7FF0895821B930BA4
:1044600008950E941B22A59F900DB49F900DA49FBC
:10447000800D911D11240895AA1BBB1B51E107C09B
:10448000AA1FBB1FA617B70710F0A61BB70B881FE4
:10449000991F5A95A9F780959095BC01CD01089573
:1044A0005058BB27AA270E9468220C94E2230E943E
:1044B000D42338F00E94DB2320F039F49F3F19F415
:1044C00026F40C94D1230EF4E095E7FB0C94CB2357
:1044D000E92F0E94F32358F3BA1762077307840782
:1044E000950720F079F4A6F50C9415240EF4E095C8
:1044F0000B2EBA2FA02D0B01B90190010C01CA019E
:10450000A0011124FF27591B99F0593F50F4503E48
:1045100068F11A16F040A22F232F342F4427585F3A
:10452000F3CF469537952795A795F0405395C9F752
:104530007EF41F16BA0B620B730B840BBAF091500A
:10454000A1F0FF0FBB1F661F771F881FC2F70EC0A9
:10455000BA0F621F731F841F48F48795779567957C
:10456000B795F7959E3F08F0B0CF9395880F08F068
:104570009927EE0F9795879508950E94A72308F431
:1045800081E008950E94D6220C94E2230E94DB234E
:1045900058F00E94D42340F029F45F3F29F00C9496
:1045A000CB2351110C9416240C94D1230E94F32395
:1045B00068F39923B1F3552391F3951B550BBB2752
:1045C000AA2762177307840738F09F5F5F4F220F97
:1045D000331F441FAA1FA9F335D00E2E3AF0E0E88E
:1045E00032D091505040E695001CCAF72BD0FE2FD8
:1045F00029D0660F771F881FBB1F2617370748076C
:10460000AB07B0E809F0BB0B802DBF01FF27935823
:104610005F4F3AF09E3F510578F00C94CB230C94F9
:1046200016245F3FE4F3983ED4F38695779567951B
:10463000B795F7959F5FC9F7880F911D9695879558
:1046400097F90895E1E0660F771F881FBB1F621777
:1046500073078407BA0720F0621B730B840BBA0B35
:10466000EE1F88F7E09508950E943B236894B111EE
:104670000C94162408950E94FB2388F09F5798F00D
:10468000B92F9927B751B0F0E1F0660F771F881F57
:10469000991F1AF0BA95C9F714C0B13091F00E9471
:1046A0001524B1E008950C941524672F782F8827DE
:1046B000B85F39F0B93FCCF3869577956795B39598
:1046C000D9F73EF490958095709561957F4F8F4F07
:1046D0009F4F0895E89409C097FB3EF4909580950C
:1046E000709561957F4F8F4F9F4F9923A9F0F92FB8
:1046F00096E9BB279395F695879577956795B79536
:10470000F111F8CFFAF4BB0F11F460FF1BC06F5F1B
:104710007F4F8F4F9F4F16C0882311F096E911C02D
:10472000772321F09EE8872F762F05C0662371F04E
:1047300096E8862F70E060E02AF09A95660F771F62
:10474000881FDAF7880F9695879597F90895990F3E
:104750000008550FAA0BE0E8FEEF16161706E8074B
:10476000F907C0F012161306E407F50798F0621B6C
:10477000730B840B950B39F40A2661F0232B242B41
:10478000252B21F408950A2609F4A140A6958FEF60
:10479000811D811D089597F99F6780E870E060E0B2
:1047A00008959FEF80EC089500240A9416161706CA
:1047B00018060906089500240A9412161306140612
:1047C00005060895092E0394000C11F4882352F075
:1047D000BB0F40F4BF2B11F460FF04C06F5F7F4F2D
:1047E0008F4F9F4F089557FD9058440F551F59F014
:1047F0005F3F71F04795880F97FB991F61F09F3FCE
:1048000079F087950895121613061406551FF2CFF6
:104810004695F1DF08C0161617061806991FF1CF46
:1048200086957105610508940895E894BB2766276D
:104830007727CB0197F908950E94A72308F48FEFFB
:1048400008950E9434240C94E2230E94D42338F06B
:104850000E94DB2320F0952311F00C94CB230C94C1
:10486000D12311240C9416240E94F32370F3959FF6
:10487000C1F3950F50E0551F629FF001729FBB2757
:10488000F00DB11D639FAA27F00DB11DAA1F649FF3
:104890006627B00DA11D661F829F2227B00DA11DA6
:1048A000621F739FB00DA11D621F839FA00D611D2C
:1048B000221F749F3327A00D611D231F849F600D4D
:1048C000211D822F762F6A2F11249F5750409AF076
:1048D000F1F088234AF0EE0FFF1FBB1F661F771F02
:1048E000881F91505040A9F79E3F510580F00C94CD
:1048F000CB230C9416245F3FE4F3983ED4F38695C3
:1049000077956795B795F795E7959F5FC1F7FE2B6C
:10491000880F911D9695879597F9089519F416F4C7
:104920000C94D1230C94D9240E94FB23B8F399232F
:10493000C9F3B6F39F57550B87FF0E94E724002465
:10494000A0E640EA900180585695979528F4805C3F
:10495000660F771F881F20F026173707480730F4A7
:10496000621B730B840B202931294A2BA6951794BF
:104970000794202531254A2758F7660F771F881F8F
:1049800020F026173707480730F4620B730B840BAF
:10499000200D311D411DA09581F7B901842F91583B
:1049A000880F9695879508950E94A723880B990BE9
:1049B00008959F3F31F0915020F487957795679542
:1049C000B795880F911D9695879597F90895915001
:1049D0005040660F771F881FD2F70895F894FFCFD5
:1049E00027003F00010501D200D302D3020000409E
:1049F00000140054005E00BC0077012B565A0000E2
:104A00000000F404540481044605B2049004A40494
:104A10000000000099086C08DB084208650852088D
:104A2000430800000000780D5404DB08F4060D0A6A
:104A3000006E616E00696E66006F7666004C4344DE
:104A4000206E6F7420666F756E64004C4344206660
:104A50006F756E6420693263203078004465746538
:0C4A600063746564200020435427730039
:00000001FF
